{
  "contractName": "Daobuilder",
  "abi": [
    {
      "anonymous": false,
      "inputs": [
        {
          "indexed": true,
          "internalType": "address",
          "name": "admin",
          "type": "address"
        }
      ],
      "name": "AdminRemoved",
      "type": "event"
    },
    {
      "anonymous": false,
      "inputs": [
        {
          "indexed": true,
          "internalType": "address",
          "name": "admin",
          "type": "address"
        }
      ],
      "name": "NewAdminAdded",
      "type": "event"
    },
    {
      "anonymous": false,
      "inputs": [
        {
          "indexed": true,
          "internalType": "address",
          "name": "previousOwner",
          "type": "address"
        },
        {
          "indexed": true,
          "internalType": "address",
          "name": "newOwner",
          "type": "address"
        }
      ],
      "name": "OwnershipTransferred",
      "type": "event"
    },
    {
      "anonymous": false,
      "inputs": [
        {
          "indexed": true,
          "internalType": "uint256",
          "name": "votingIndex",
          "type": "uint256"
        },
        {
          "indexed": true,
          "internalType": "uint256",
          "name": "option",
          "type": "uint256"
        },
        {
          "indexed": true,
          "internalType": "address",
          "name": "voter",
          "type": "address"
        }
      ],
      "name": "VoteRegistered",
      "type": "event"
    },
    {
      "anonymous": false,
      "inputs": [
        {
          "indexed": true,
          "internalType": "address",
          "name": "voter",
          "type": "address"
        }
      ],
      "name": "VoterAdded",
      "type": "event"
    },
    {
      "anonymous": false,
      "inputs": [
        {
          "indexed": true,
          "internalType": "address",
          "name": "voter",
          "type": "address"
        }
      ],
      "name": "VoterDisabled",
      "type": "event"
    },
    {
      "anonymous": false,
      "inputs": [
        {
          "indexed": true,
          "internalType": "address",
          "name": "voter",
          "type": "address"
        }
      ],
      "name": "VoterEnabled",
      "type": "event"
    },
    {
      "anonymous": false,
      "inputs": [
        {
          "indexed": true,
          "internalType": "address",
          "name": "voter",
          "type": "address"
        }
      ],
      "name": "VoterPowerDecreased",
      "type": "event"
    },
    {
      "anonymous": false,
      "inputs": [
        {
          "indexed": true,
          "internalType": "address",
          "name": "voter",
          "type": "address"
        }
      ],
      "name": "VoterPowerIncreased",
      "type": "event"
    },
    {
      "anonymous": false,
      "inputs": [
        {
          "indexed": true,
          "internalType": "address",
          "name": "voter",
          "type": "address"
        }
      ],
      "name": "VoterRemoved",
      "type": "event"
    },
    {
      "anonymous": false,
      "inputs": [
        {
          "indexed": true,
          "internalType": "uint256",
          "name": "votingIndex",
          "type": "uint256"
        },
        {
          "indexed": false,
          "internalType": "string",
          "name": "msg",
          "type": "string"
        }
      ],
      "name": "VotingDataChanged",
      "type": "event"
    },
    {
      "anonymous": false,
      "inputs": [
        {
          "indexed": true,
          "internalType": "uint256",
          "name": "votingIndex",
          "type": "uint256"
        },
        {
          "indexed": false,
          "internalType": "string",
          "name": "option",
          "type": "string"
        },
        {
          "indexed": false,
          "internalType": "string",
          "name": "msg",
          "type": "string"
        }
      ],
      "name": "VotingOptionChanged",
      "type": "event"
    },
    {
      "anonymous": false,
      "inputs": [
        {
          "indexed": true,
          "internalType": "uint256",
          "name": "votingIndex",
          "type": "uint256"
        },
        {
          "indexed": true,
          "internalType": "address",
          "name": "delegater",
          "type": "address"
        },
        {
          "indexed": true,
          "internalType": "address",
          "name": "delegatee",
          "type": "address"
        }
      ],
      "name": "VotingRightDelegated",
      "type": "event"
    },
    {
      "anonymous": false,
      "inputs": [
        {
          "indexed": true,
          "internalType": "uint256",
          "name": "votingIndex",
          "type": "uint256"
        },
        {
          "indexed": true,
          "internalType": "address",
          "name": "delegater",
          "type": "address"
        },
        {
          "indexed": true,
          "internalType": "address",
          "name": "delegatee",
          "type": "address"
        }
      ],
      "name": "VotingRightUnDelegated",
      "type": "event"
    },
    {
      "inputs": [
        {
          "internalType": "address",
          "name": "_voter",
          "type": "address"
        }
      ],
      "name": "addVoter",
      "outputs": [],
      "stateMutability": "nonpayable",
      "type": "function"
    },
    {
      "inputs": [
        {
          "internalType": "uint256",
          "name": "_start",
          "type": "uint256"
        },
        {
          "internalType": "uint256",
          "name": "_end",
          "type": "uint256"
        },
        {
          "internalType": "string",
          "name": "_title",
          "type": "string"
        },
        {
          "internalType": "string",
          "name": "_description",
          "type": "string"
        }
      ],
      "name": "addVoting",
      "outputs": [
        {
          "internalType": "uint256",
          "name": "",
          "type": "uint256"
        }
      ],
      "stateMutability": "nonpayable",
      "type": "function"
    },
    {
      "inputs": [
        {
          "internalType": "address",
          "name": "_newadmin",
          "type": "address"
        }
      ],
      "name": "addVotingAdmin",
      "outputs": [],
      "stateMutability": "nonpayable",
      "type": "function"
    },
    {
      "inputs": [
        {
          "internalType": "uint256",
          "name": "_votingId",
          "type": "uint256"
        },
        {
          "internalType": "string",
          "name": "option",
          "type": "string"
        }
      ],
      "name": "addVotingOption",
      "outputs": [],
      "stateMutability": "nonpayable",
      "type": "function"
    },
    {
      "inputs": [
        {
          "internalType": "uint256",
          "name": "_votingId",
          "type": "uint256"
        },
        {
          "internalType": "string",
          "name": "_description",
          "type": "string"
        }
      ],
      "name": "changeVotingDescription",
      "outputs": [],
      "stateMutability": "nonpayable",
      "type": "function"
    },
    {
      "inputs": [
        {
          "internalType": "uint256",
          "name": "_votingId",
          "type": "uint256"
        },
        {
          "internalType": "uint256",
          "name": "_enddate",
          "type": "uint256"
        }
      ],
      "name": "changeVotingEndDate",
      "outputs": [],
      "stateMutability": "nonpayable",
      "type": "function"
    },
    {
      "inputs": [
        {
          "internalType": "uint256",
          "name": "_votingId",
          "type": "uint256"
        },
        {
          "internalType": "uint256",
          "name": "_startdate",
          "type": "uint256"
        }
      ],
      "name": "changeVotingStartDate",
      "outputs": [],
      "stateMutability": "nonpayable",
      "type": "function"
    },
    {
      "inputs": [
        {
          "internalType": "uint256",
          "name": "_votingId",
          "type": "uint256"
        },
        {
          "internalType": "string",
          "name": "_title",
          "type": "string"
        }
      ],
      "name": "changeVotingTitle",
      "outputs": [],
      "stateMutability": "nonpayable",
      "type": "function"
    },
    {
      "inputs": [
        {
          "internalType": "address",
          "name": "_voter",
          "type": "address"
        }
      ],
      "name": "decreaseVoterPower",
      "outputs": [],
      "stateMutability": "nonpayable",
      "type": "function"
    },
    {
      "inputs": [
        {
          "internalType": "address",
          "name": "_voter",
          "type": "address"
        }
      ],
      "name": "disableVoter",
      "outputs": [],
      "stateMutability": "nonpayable",
      "type": "function"
    },
    {
      "inputs": [
        {
          "internalType": "address",
          "name": "_voter",
          "type": "address"
        }
      ],
      "name": "enableVoter",
      "outputs": [],
      "stateMutability": "nonpayable",
      "type": "function"
    },
    {
      "inputs": [
        {
          "internalType": "address",
          "name": "_voter",
          "type": "address"
        }
      ],
      "name": "increaseVoterPower",
      "outputs": [],
      "stateMutability": "nonpayable",
      "type": "function"
    },
    {
      "inputs": [],
      "name": "isOwner",
      "outputs": [
        {
          "internalType": "bool",
          "name": "",
          "type": "bool"
        }
      ],
      "stateMutability": "view",
      "type": "function",
      "constant": true
    },
    {
      "inputs": [
        {
          "internalType": "address",
          "name": "_address",
          "type": "address"
        }
      ],
      "name": "isUserAdmin",
      "outputs": [
        {
          "internalType": "bool",
          "name": "",
          "type": "bool"
        }
      ],
      "stateMutability": "view",
      "type": "function",
      "constant": true
    },
    {
      "inputs": [
        {
          "internalType": "address",
          "name": "_address",
          "type": "address"
        }
      ],
      "name": "isVoter",
      "outputs": [
        {
          "internalType": "bool",
          "name": "",
          "type": "bool"
        }
      ],
      "stateMutability": "view",
      "type": "function",
      "constant": true
    },
    {
      "inputs": [],
      "name": "lastOptionId",
      "outputs": [
        {
          "internalType": "uint256",
          "name": "",
          "type": "uint256"
        }
      ],
      "stateMutability": "view",
      "type": "function",
      "constant": true
    },
    {
      "inputs": [],
      "name": "lastVoteId",
      "outputs": [
        {
          "internalType": "uint256",
          "name": "",
          "type": "uint256"
        }
      ],
      "stateMutability": "view",
      "type": "function",
      "constant": true
    },
    {
      "inputs": [],
      "name": "lastVoterId",
      "outputs": [
        {
          "internalType": "uint256",
          "name": "",
          "type": "uint256"
        }
      ],
      "stateMutability": "view",
      "type": "function",
      "constant": true
    },
    {
      "inputs": [],
      "name": "lastVotingAdminId",
      "outputs": [
        {
          "internalType": "uint256",
          "name": "",
          "type": "uint256"
        }
      ],
      "stateMutability": "view",
      "type": "function",
      "constant": true
    },
    {
      "inputs": [],
      "name": "lastVotingId",
      "outputs": [
        {
          "internalType": "uint256",
          "name": "",
          "type": "uint256"
        }
      ],
      "stateMutability": "view",
      "type": "function",
      "constant": true
    },
    {
      "inputs": [
        {
          "internalType": "address",
          "name": "",
          "type": "address"
        },
        {
          "internalType": "uint256",
          "name": "",
          "type": "uint256"
        }
      ],
      "name": "myVotings",
      "outputs": [
        {
          "internalType": "uint256",
          "name": "",
          "type": "uint256"
        }
      ],
      "stateMutability": "view",
      "type": "function",
      "constant": true
    },
    {
      "inputs": [
        {
          "internalType": "uint256",
          "name": "",
          "type": "uint256"
        }
      ],
      "name": "options",
      "outputs": [
        {
          "internalType": "string",
          "name": "option",
          "type": "string"
        },
        {
          "internalType": "bool",
          "name": "enabled",
          "type": "bool"
        },
        {
          "internalType": "uint256",
          "name": "votingId",
          "type": "uint256"
        }
      ],
      "stateMutability": "view",
      "type": "function",
      "constant": true
    },
    {
      "inputs": [
        {
          "internalType": "address",
          "name": "_address",
          "type": "address"
        }
      ],
      "name": "removeVotingAdmin",
      "outputs": [],
      "stateMutability": "nonpayable",
      "type": "function"
    },
    {
      "inputs": [
        {
          "internalType": "uint256",
          "name": "_votingId",
          "type": "uint256"
        },
        {
          "internalType": "uint256",
          "name": "option",
          "type": "uint256"
        }
      ],
      "name": "removeVotingOption",
      "outputs": [],
      "stateMutability": "nonpayable",
      "type": "function"
    },
    {
      "inputs": [
        {
          "internalType": "uint256",
          "name": "_votingId",
          "type": "uint256"
        }
      ],
      "name": "setVotingActive",
      "outputs": [],
      "stateMutability": "nonpayable",
      "type": "function"
    },
    {
      "inputs": [
        {
          "internalType": "uint256",
          "name": "_votingId",
          "type": "uint256"
        }
      ],
      "name": "setVotingEnded",
      "outputs": [],
      "stateMutability": "nonpayable",
      "type": "function"
    },
    {
      "inputs": [
        {
          "internalType": "address",
          "name": "to",
          "type": "address"
        }
      ],
      "name": "transferOwnership",
      "outputs": [],
      "stateMutability": "nonpayable",
      "type": "function"
    },
    {
      "inputs": [
        {
          "internalType": "address",
          "name": "",
          "type": "address"
        }
      ],
      "name": "voters",
      "outputs": [
        {
          "internalType": "bool",
          "name": "enabled",
          "type": "bool"
        },
        {
          "internalType": "uint8",
          "name": "votingPower",
          "type": "uint8"
        },
        {
          "internalType": "bool",
          "name": "added",
          "type": "bool"
        }
      ],
      "stateMutability": "view",
      "type": "function",
      "constant": true
    },
    {
      "inputs": [
        {
          "internalType": "uint256",
          "name": "",
          "type": "uint256"
        }
      ],
      "name": "votersAddresses",
      "outputs": [
        {
          "internalType": "address",
          "name": "",
          "type": "address"
        }
      ],
      "stateMutability": "view",
      "type": "function",
      "constant": true
    },
    {
      "inputs": [
        {
          "internalType": "address",
          "name": "",
          "type": "address"
        },
        {
          "internalType": "uint256",
          "name": "",
          "type": "uint256"
        }
      ],
      "name": "votersVotes",
      "outputs": [
        {
          "internalType": "uint256",
          "name": "",
          "type": "uint256"
        }
      ],
      "stateMutability": "view",
      "type": "function",
      "constant": true
    },
    {
      "inputs": [
        {
          "internalType": "uint256",
          "name": "",
          "type": "uint256"
        }
      ],
      "name": "votes",
      "outputs": [
        {
          "internalType": "uint256",
          "name": "votingId",
          "type": "uint256"
        },
        {
          "internalType": "address",
          "name": "voter",
          "type": "address"
        },
        {
          "internalType": "address",
          "name": "voingInsteadOf",
          "type": "address"
        },
        {
          "internalType": "string",
          "name": "option",
          "type": "string"
        },
        {
          "internalType": "uint256",
          "name": "timeofVote",
          "type": "uint256"
        },
        {
          "internalType": "uint256",
          "name": "power",
          "type": "uint256"
        }
      ],
      "stateMutability": "view",
      "type": "function",
      "constant": true
    },
    {
      "inputs": [
        {
          "internalType": "uint256",
          "name": "",
          "type": "uint256"
        }
      ],
      "name": "votingAdmins",
      "outputs": [
        {
          "internalType": "address",
          "name": "admin",
          "type": "address"
        },
        {
          "internalType": "bool",
          "name": "enabled",
          "type": "bool"
        },
        {
          "internalType": "bool",
          "name": "added",
          "type": "bool"
        }
      ],
      "stateMutability": "view",
      "type": "function",
      "constant": true
    },
    {
      "inputs": [
        {
          "internalType": "address",
          "name": "",
          "type": "address"
        }
      ],
      "name": "votingAdminsShort",
      "outputs": [
        {
          "internalType": "uint256",
          "name": "",
          "type": "uint256"
        }
      ],
      "stateMutability": "view",
      "type": "function",
      "constant": true
    },
    {
      "inputs": [
        {
          "internalType": "uint256",
          "name": "",
          "type": "uint256"
        },
        {
          "internalType": "uint256",
          "name": "",
          "type": "uint256"
        }
      ],
      "name": "votingOptions",
      "outputs": [
        {
          "internalType": "uint256",
          "name": "",
          "type": "uint256"
        }
      ],
      "stateMutability": "view",
      "type": "function",
      "constant": true
    },
    {
      "inputs": [
        {
          "internalType": "uint256",
          "name": "",
          "type": "uint256"
        }
      ],
      "name": "votings",
      "outputs": [
        {
          "internalType": "address",
          "name": "creator",
          "type": "address"
        },
        {
          "internalType": "uint256",
          "name": "start",
          "type": "uint256"
        },
        {
          "internalType": "uint256",
          "name": "end",
          "type": "uint256"
        },
        {
          "internalType": "bool",
          "name": "ended",
          "type": "bool"
        },
        {
          "internalType": "bool",
          "name": "activated",
          "type": "bool"
        },
        {
          "internalType": "string",
          "name": "title",
          "type": "string"
        },
        {
          "internalType": "string",
          "name": "descriptions",
          "type": "string"
        },
        {
          "internalType": "uint256",
          "name": "createdAt",
          "type": "uint256"
        }
      ],
      "stateMutability": "view",
      "type": "function",
      "constant": true
    },
    {
      "inputs": [
        {
          "internalType": "uint256",
          "name": "",
          "type": "uint256"
        },
        {
          "internalType": "uint256",
          "name": "",
          "type": "uint256"
        }
      ],
      "name": "votingsVotes",
      "outputs": [
        {
          "internalType": "uint256",
          "name": "",
          "type": "uint256"
        }
      ],
      "stateMutability": "view",
      "type": "function",
      "constant": true
    },
    {
      "inputs": [],
      "name": "getActiveVotings",
      "outputs": [
        {
          "internalType": "uint256[]",
          "name": "",
          "type": "uint256[]"
        }
      ],
      "stateMutability": "view",
      "type": "function",
      "constant": true
    },
    {
      "inputs": [],
      "name": "getMyVotings",
      "outputs": [
        {
          "internalType": "uint256[]",
          "name": "",
          "type": "uint256[]"
        }
      ],
      "stateMutability": "view",
      "type": "function",
      "constant": true
    },
    {
      "inputs": [
        {
          "internalType": "uint256",
          "name": "_votingId",
          "type": "uint256"
        }
      ],
      "name": "getVotingOptions",
      "outputs": [
        {
          "internalType": "uint256[]",
          "name": "",
          "type": "uint256[]"
        }
      ],
      "stateMutability": "view",
      "type": "function",
      "constant": true
    },
    {
      "inputs": [
        {
          "internalType": "uint256",
          "name": "_votingId",
          "type": "uint256"
        },
        {
          "internalType": "address",
          "name": "_to",
          "type": "address"
        }
      ],
      "name": "delegateMyVote",
      "outputs": [],
      "stateMutability": "nonpayable",
      "type": "function"
    },
    {
      "inputs": [
        {
          "internalType": "uint256",
          "name": "_votingId",
          "type": "uint256"
        },
        {
          "internalType": "address",
          "name": "_to",
          "type": "address"
        }
      ],
      "name": "revokeDelegation",
      "outputs": [],
      "stateMutability": "nonpayable",
      "type": "function"
    },
    {
      "inputs": [
        {
          "internalType": "uint256",
          "name": "_votingId",
          "type": "uint256"
        }
      ],
      "name": "getMyDelegationOnVoting",
      "outputs": [
        {
          "internalType": "address",
          "name": "addrss",
          "type": "address"
        }
      ],
      "stateMutability": "view",
      "type": "function",
      "constant": true
    },
    {
      "inputs": [
        {
          "internalType": "uint256",
          "name": "_votingId",
          "type": "uint256"
        },
        {
          "internalType": "uint256",
          "name": "_selectedOption",
          "type": "uint256"
        },
        {
          "internalType": "address",
          "name": "_onbehalfOf",
          "type": "address"
        }
      ],
      "name": "vote",
      "outputs": [],
      "stateMutability": "nonpayable",
      "type": "function"
    },
    {
      "inputs": [
        {
          "internalType": "uint256",
          "name": "_votingId",
          "type": "uint256"
        }
      ],
      "name": "getVotingsVotes",
      "outputs": [
        {
          "internalType": "uint256[]",
          "name": "",
          "type": "uint256[]"
        }
      ],
      "stateMutability": "view",
      "type": "function",
      "constant": true
    },
    {
      "inputs": [],
      "name": "getVotersVotes",
      "outputs": [
        {
          "internalType": "uint256[]",
          "name": "",
          "type": "uint256[]"
        }
      ],
      "stateMutability": "view",
      "type": "function",
      "constant": true
    }
  ],
  "bytecode": "0x6080806040523461005e57600080546001600160a01b031916339081178255817f8be0079c531659141344cd1fd0a4f28419497f9722a3daafe3b4186f6b6457e08180a3806003558060045580600855600e55612f2790816100648239f35b600080fdfe6080604052600436101561001257600080fd5b60003560e01c806307e15606146127e65780631676ab681461271157806317020503146126f35780631af10679146126bf5780631bc28ea0146126a15780631d9d554c14612618578063284fe079146125fa57806329bef429146125dc57806333f7e03e146125ab57806334f486c11461247a578063379e07bf146123d2578063409e22051461237257806340e20dda146121c257806346db11691461202e57806348e72cff14611f9d5780634c6fd10f14611eb85780634f8935e914611e3057806350d91583146119235780635a89ef78146117535780635cca38c5146116ab5780635d7b48b5146115c45780635df813301461153c5780636aa8ba841461150b57806370695698146114c157806373598386146114a357806374d523a8146114535780637a632555146113ea57806381435aa71461135e5780638f32d59b146113365780639cc2127e1461112d578063a09b24c314611064578063a3ec138d1461100d578063a44f151114610d7c578063a598d03c14610cc9578063a7771ee314610c85578063b1e3a48f14610b75578063bd95fa5614610b26578063cbb806db14610926578063cef62a88146108bc578063deff5db514610882578063e4ee00a614610808578063f27a82f4146107b0578063f2fde38b14610741578063f4ab9adf146105eb5763fe822ce01461020b57600080fd5b346105e65760803660031901126105e6576001600160401b036044358181116105e65761023c903690600401612b3b565b6064358281116105e657610254903690600401612b3b565b336000526020926002845260406000205460005260019182855261028260ff60406000205460a01c16612be9565b600854918383018093116105d05782600855604051936101008501858110838211176104fb5760405233855286850160043581526040860190602435825260608701916000835260808801916000835260a08901998a5260c0890196875260e089019742895260005260078b5260406000209860018060a01b0390511660018060a01b03198a541617895551848901555160028801556103356003880192511515839060ff801983541691151516179055565b51151561ff0082549160081b169061ff0019161790556004850195519586518381116104fb578061036683546129a4565b98601f998a811161057f575b508a908a831160011461051c57600092610511575b5050600019600383901b1c191690831b1790555b60058501925180519283116104fb576103b484546129a4565b8781116104b5575b5087968311600114610451578291600696978392600094610446575b50501b916000199060031b1c19161790555b519101553360005260098152610407604060002060085490612e1f565b60085480600080516020612ed28339815191526060604051858152600c868201526b159bdd1a5b99c8105919195960a21b6040820152a2604051908152f35b0151925038806103d8565b601f9291921982169684600052886000209160005b8a8a82106104a1575050836006989910610488575b505050811b0190556103ea565b015160001960f88460031b161c1916905538808061047b565b828401518555938601939283019201610466565b84600052886000208880860160051c8201928b87106104f2575b0160051c019083905b8281106104e65750506103bc565b600081550183906104d8565b925081926104cf565b634e487b7160e01b600052604160045260246000fd5b015190503880610387565b60008581528c8120879550929190601f198516908e5b828210610568575050841161054f575b505050811b01905561039b565b015160001960f88460031b161c19169055388080610542565b83850151865589979095019493840193018e610532565b909150836000528a6000208a80850160051c8201928d86106105c7575b918791869594930160051c01915b8281106105b8575050610372565b600081558594508791016105aa565b9250819261059c565b634e487b7160e01b600052601160045260246000fd5b600080fd5b346105e6576020806003193601126105e65761060561294a565b6000546001600160a01b039190821633036105e6571690816000526005815260ff60406000205460101c166107065760045490600182018092116105d057600691600455604051610655816129de565b60008152818101600181526106aa60ff6040840192600184528760005260058652610694604060002095511515869060ff801983541691151516179055565b51845461ff001916911660081b61ff0016178355565b51815462ff0000191690151560101b62ff00001617905560045460009081529190526040812080546001600160a01b031916831790557fa636f4a11e2d3ba7f89d042ecb0a6b886716e98cd49d8fd876ee0f73bced42b89080a2005b6064906040519062461bcd60e51b825260048201526014602482015273566f74657220416c72656164792065786973747360601b6044820152fd5b346105e65760203660031901126105e65761075a61294a565b6000546001600160a01b0380821692338490036105e657169182156105e65782907f8be0079c531659141344cd1fd0a4f28419497f9722a3daafe3b4186f6b6457e0600080a36001600160a01b03191617600055005b346105e65760403660031901126105e6576107c961294a565b6001600160a01b03166000908152600960205260409020805460243591908210156105e6576020916107fa9161298c565b90546040519160031b1c8152f35b346105e6576020806003193601126105e657600435600052600c8152604060002090604051908181845491828152019360005281600020916000905b82821061086b576108678561085b818903826129f9565b60405191829182612b00565b0390f35b835486529485019460019384019390910190610844565b346105e65760203660031901126105e6576001600160a01b036108a361294a565b1660005260026020526020604060002054604051908152f35b346105e6576020806003193601126105e65760043560005260108152604060002090604051908181845491828152019360005281600020916000905b82821061090f576108678561085b818903826129f9565b8354865294850194600193840193909101906108f8565b346105e65761093436612b91565b9033600052602060028152604060002054600052600180825261096160ff60406000205460a01c16612be9565b6000546001600160a01b039081163303610b05575b50826000526007825261099760ff60036040600020015460081c1615612c30565b82600052600782526004604060002001908451946001600160401b0386116104fb576109c383546129a4565b601f8111610abc575b508390601f8711600114610a4557958060609594938193600080516020612ed28339815191529899600094610a3a575b50501b916000199060031b1c19161790555b60146040519180835282015273159bdd1a5b99c81d1a5d1b194818da185b99d95960621b6040820152a2005b0151925089806109fc565b90601f1987169184600052856000209260005b818110610aa75750916060969594939189600080516020612ed2833981519152999a9410610a8e575b505050811b019055610a0e565b015160001960f88460031b161c19169055878080610a81565b82840151855593850193928701928701610a58565b8360005284600020601f880160051c810191868910610afb575b601f0160051c019083905b828110610aef5750506109cc565b60008155018390610ae1565b9091508190610ad6565b610b2090846000526007845233906040600020541614612e54565b84610976565b346105e65760203660031901126105e6576004356000526001602052606060406000205460ff6040519160018060a01b0381168352818160a01c161515602084015260a81c1615156040820152f35b346105e65760003660031901126105e65760088054610b9381612bc3565b90610ba160405192836129f9565b808252601f19610bb082612bc3565b01926020933685850137600093600191825b84811115610bd857604051806108678882612b00565b8060005260078352604060002060038101549060ff8083861c169283610c7a575b505081610c67575b81610c55575b50610c1b575b610c1690612bda565b610bc2565b958551811015610c3f5786838260051b880101528381018091116105d05795610c0d565b634e487b7160e01b600052603260045260246000fd5b6103e891506002015404421088610c07565b90506103e8858201540442101590610c01565b161591508980610bf9565b346105e65760203660031901126105e6576001600160a01b03610ca661294a565b1660005260056020526020600160ff60406000205460081c161015604051908152f35b346105e65760203660031901126105e6576004356000526007602052604060002060018060a01b03815416600182015491610d72600282015491610d64600382015460ff610d1960048501612a1a565b916006610d2860058701612a1a565b95015496604051998a998a5260208a015260408901528181161515606089015260081c16151560808701526101008060a0880152860190612ac0565b9084820360c0860152612ac0565b9060e08301520390f35b346105e657610d8a36612b91565b903360005260026020526040600020546000526001602052610db660ff60406000205460a01c16612be9565b6000546001600160a01b039081163303610feb575b50806000526007602052610ded60ff60036040600020015460081c1615612c30565b600b5491600183018093116105d05782600b5581600052600c602052604060002060405193610e1b856129de565b82855260016020860152836040860152600052600a602052604060002084519485516001600160401b0381116104fb57610e5583546129a4565b601f8111610fa3575b506020601f8211600114610f2057610ed494939282600293604093600080516020612eb28339815191529a9b600092610f15575b50508160011b916000199060031b1c19161784555b610ec660208201511515600186019060ff801983541691151516179055565b0151910155600b5490612e1f565b6040610ee881519282845282840190612ac0565b72159bdd1a5b99c813dc1d1a5bdb881059191959606a1b60208483039283828701526013815201520190a2005b015190508b80610e92565b8360005260206000209760005b601f1984168110610f8b575092600183600080516020612eb2833981519152999a604094610ed4999897600297601f19811610610f72575b505050811b018455610ea7565b015160001960f88460031b161c191690558b8080610f65565b828201518a5560019099019860209283019201610f2d565b836000526020600020601f830160051c81019160208410610fe1575b601f0160051c01905b818110610fd55750610e5e565b60008155600101610fc8565b9091508190610fbf565b6110079082600052600760205233906040600020541614612e54565b82610dcb565b346105e65760203660031901126105e6576001600160a01b0361102e61294a565b166000526005602052606060406000205460ff6040519181811615158352818160081c16602084015260101c1615156040820152f35b346105e65760203660031901126105e65761107d61294a565b6000546001600160a01b039190821633036105e657168060005260056020526110b060ff60406000205460101c16612d0f565b8060005260056020526110d0600160ff60406000205460081c1611612d0f565b806000526005602052604060002060001960ff825460081c160160ff81116105d057815461ff00191660089190911b61ff00161790557f84600759115fa43b37442490b0820bda045fe013e33c564b7cc4e477776a70e2600080a2005b346105e65761113b36612b91565b9033600052602060028152604060002054600052600180825261116860ff60406000205460a01c16612be9565b6000546001600160a01b039081163303611315575b50826000526007825261119e60ff60036040600020015460081c1615612c30565b82600052600782526005604060002001908451946001600160401b0386116104fb576111ca83546129a4565b601f81116112cc575b508390601f871160011461125557958060609594938193600080516020612ed2833981519152989960009461124a575b50501b916000199060031b1c19161790555b601a604051918083528201527f566f74696e67206465736372697074696f6e206368616e6765640000000000006040820152a2005b015192508980611203565b90601f1987169184600052856000209260005b8181106112b75750916060969594939189600080516020612ed2833981519152999a941061129e575b505050811b019055611215565b015160001960f88460031b161c19169055878080611291565b82840151855593850193928701928701611268565b8360005284600020601f880160051c81019186891061130b575b601f0160051c019083905b8281106112ff5750506111d3565b600081550183906112f1565b90915081906112e6565b61133090846000526007845233906040600020541614612e54565b8461117d565b346105e65760003660031901126105e657602060018060a01b03600054163314604051908152f35b346105e65760203660031901126105e65761137761294a565b6000546001600160a01b039190821633036105e657168060005260056020526113aa60ff60406000205460101c16612d0f565b8060005260056020526040600020600160ff198254161790557ff82c1433711971ea9322bdc605f131ef667575de2f51e3b9d26cd68f44299685600080a2005b346105e65760003660031901126105e657336000526020600f8152604060002090604051908181845491828152019360005281600020916000905b82821061143c576108678561085b818903826129f9565b835486529485019460019384019390910190611425565b346105e65760203660031901126105e6576001600160a01b0361147461294a565b1660005260026020526040600020546000526001602052602060ff60406000205460a01c166040519015158152f35b346105e65760003660031901126105e6576020600b54604051908152f35b346105e65760403660031901126105e6576114da61294a565b6001600160a01b03166000908152600f60205260409020805460243591908210156105e6576020916107fa9161298c565b346105e65761151936612976565b90600052600c602052604060002080548210156105e6576020916107fa9161298c565b346105e65760203660031901126105e6576004356000908152600d602052604090208054600182015460028301546001600160a01b039182169391166115b561158760038401612a1a565b600560048501549401549260405196879687526020870152604086015260c0606086015260c0850190612ac0565b91608084015260a08301520390f35b346105e6576060600080516020612ed28339815191526115e336612976565b92909233600052602090600282526040600020546000526001825261161260ff60406000205460a01c16612be9565b6000546001600160a01b03908116330361168a575b50846000526007825261164860ff60036040600020015460081c1615612c30565b846000526007825260016040600020015560196040519180835282015278159bdd1a5b99c81cdd185c9d0819185d194818da185b99d959603a1b6040820152a2005b6116a590866000526007845233906040600020541614612e54565b85611627565b346105e65760203660031901126105e6576116c461294a565b6000546001600160a01b039190821633036105e65716806000526002602052604060002054600052600160205261170560ff60406000205460a01c16612be9565b8060005260026020526040600020546000526001602052604060002060ff60a01b1981541690557fa3b62bc36326052d97ea62d63c3d60308ed4c3ea8ac079dd8499f1e9c4f80c0f600080a2005b346105e65760403660031901126105e65760043561176f612960565b9080600052602060078152600361179260ff826040600020015460081c16612c30565b82600052600782526117ae60ff82604060002001541615612c73565b826000526007825260406000206117d060029160018382015491015410612c73565b836000526007835261180b6103e86117f2818460406000200154044210612c73565b8560005260078552600160406000200154044211612cb1565b336000526005835261182760ff60406000205460101c16612d0f565b336000526005835261184060ff60406000205416612d0f565b33600052600f83526040600020916000928054935b8481106118b95760008781526011875260408082203380845290895290822080546001600160a01b0319166001600160a01b038c169081179091559189907f54cc6a57020529f3b05580ff1bd95fb787115332005316c8b7004cd24c24c7109080a4005b806118c76118e8928461298c565b905490851b1c600052600d80885288604060002054146118ed575b50612bda565b611855565b6118f7828561298c565b905490861b1c600052875261191d3360018060a01b038760406000200154161415612d53565b896118e2565b346105e65760603660031901126105e6576044356001600160a01b03811681036105e657600435600052600760205260ff61196a8160036040600020015460081c16612c30565b6004356000526007602052611989816003604060002001541615612c73565b60043560005260076020526119ac60406000206001600282015491015410612c73565b60043560005260076020526119ee6103e86119d281600260406000200154044210612c73565b6004356000526007602052600160406000200154044211612cb1565b6001600160a01b0382166000908152600f602052604081208054915b828110611db857505050336000526005602052611a308160406000205460101c16612d0f565b336000526005602052611a498160406000205416612d0f565b6001600160a01b0382163303611d30575b602435600052600a602052611a788160016040600020015416612dba565b602435600052600a602052611a9860043560026040600020015414612dba565b600e54906001820182116105d05760018201600e55602435600052600a60205260406000209060018060a01b038416600052600560205260406000205460081c1691604051928360c08101106001600160401b0360c0860111176104fb5760c08401604090815260043585523360208601526001600160a01b03861690850152600192611b2490612a1a565b606085015242608085015260a084015201600052600d602052604060002090805182556001820160018060a01b036020830151169060018060a01b03199182825416179055600283019060018060a01b036040840151169082541617905560608101518051906001600160401b0382116104fb57611ba560038501546129a4565b601f8111611ce9575b50602090601f8311600114611c765791806005949260a094600092611c6b575b50508160011b916000199060031b1c19161760038501555b6080810151600485015501519101556001600160a01b0381166000908152600f60205260409020600e54611c1991612e1f565b6004356000526010602052611c356040600020600e5490612e1f565b6001600160a01b03166024356004357f0947d2287bd90a819628b3e97482fd6f045997991d7dbca8bbc4e14fd9656312600080a4005b015190508780611bce565b90601f198316916003860160005260206000209260005b818110611cd1575092600192859260a0966005989610611cb8575b505050811b016003850155611be6565b015160001960f88460031b161c19169055878080611ca8565b92936020600181928786015181550195019301611c8d565b600385016000526020600020601f840160051c810160208510611d29575b601f830160051c82018110611d1d575050611bae565b60008155600101611d07565b5080611d07565b60043560009081526011602090815260408083206001600160a01b038681168552925290912054163314611a5a5760405162461bcd60e51b815260206004820152602c60248201527f596f752068617665206e6f20726967687420746f20766f746520666f7220736f60448201526b6d656f6e65277320656c736560a01b6064820152608490fd5b80611dc6611dea928461298c565b90549060031b1c600052600d8060205260043560406000205414611def5750612bda565b611a0a565b611df9828561298c565b90549060031b1c600052602052611e2a60018060a01b03871660018060a01b03600260406000200154161415612d53565b866118e2565b346105e65760203660031901126105e657600054600435906001600160a01b031633036105e657806000526007602052600360406000200161010061ff0019825416179055600080516020612ed28339815191526060604051602081526018602082015277566f74696e672069732073657420416374697665206e6f7760401b6040820152a2005b346105e6576060600080516020612ed2833981519152611ed736612976565b929092336000526020906002825260406000205460005260018252611f0660ff60406000205460a01c16612be9565b6000546001600160a01b039081163303611f7c575b508460005260078252611f3c60ff60036040600020015460081c1615612c30565b846000526007825260026040600020015560176040519180835282015276159bdd1a5b99c8195b990819185d194818da185b99d959604a1b6040820152a2005b611f9790866000526007845233906040600020541614612e54565b85611f1b565b346105e65760003660031901126105e657336000526020600281526040600020546000526001808252611fda60ff60406000205460a01c16612be9565b3360005260098252604060002091604051918282855491828152019460005282600020926000905b828210612019576108678661085b818a03826129f9565b84548752958601959383019390830190612002565b346105e65760403660031901126105e65760043561204a612960565b81600052602060078152600361206c60ff826040600020015460081c16612c30565b836000526007825261208860ff82604060002001541615612c73565b836000526007825260406000206120aa60029160018382015491015410612c73565b84600052600783526120e56103e86120cc818460406000200154044210612c73565b8660005260078552600160406000200154044211612cb1565b336000526005835261210160ff60406000205460101c16612d0f565b336000526005835261211a60ff60406000205416612d0f565b33600052600f83526040600020916000928054935b84811061218f5760008881526011875260408082203380845290895290822080546001600160a01b03191690556001600160a01b038916918a907f435aa282ae9d3c4d5515827fb329835e421b6b7d7c49ccbeb1ed3378cc9fef5b9080a4005b8061219d6121bd928461298c565b905490851b1c600052600d80885289604060002054146118ed5750612bda565b61212f565b346105e6576121d036612976565b9033600052602091600283526040600020546000526001908184526121ff60ff60406000205460a01c16612be9565b6000546001600160a01b039081163303612351575b50826000526007845261223560ff60036040600020015460081c1615612c30565b600052600a8352604060002081810160ff199081815416905560405192604084526000928054612264816129a4565b9384604088015283821691826000146123135750506001146122c3575b85600080516020612eb28339815191528660408774159bdd1a5b99c81bdc1d1a5bdb881c995b5bdd9959605a1b8c8483039283828701526015815201520190a2005b60009081528681209093505b8284106122ff5750505081016060018374159bdd1a5b99c81bdc1d1a5bdb881c995b5bdd9959605a1b6040612281565b8054858501606001529286019281016122cf565b1660608781019190915293151560051b8601909301935086925074159bdd1a5b99c81bdc1d1a5bdb881c995b5bdd9959605a1b915060409050612281565b61236c90846000526007865233906040600020541614612e54565b84612214565b346105e65760203660031901126105e657600435600052600a6020526123c1604060002061239f81612a1a565b90600260ff600183015416910154604051938493606085526060850190612ac0565b911515602084015260408301520390f35b346105e65760203660031901126105e6576123eb61294a565b6000546001600160a01b039190821633036105e6571680600052600560205261241e60ff60406000205460101c16612d0f565b8060005260056020526040600020600160ff825460081c160160ff81116105d057815461ff00191660089190911b61ff00161790557f4e7e2c6b7807915515b04d4cd84bf7cba8a16c67281691562abfa0def6e922fb600080a2005b346105e6576020806003193601126105e65761249461294a565b6000546001600160a01b039190821633036105e657811691826000526002815260406000205460005260019182825260ff60406000205460a81c161560001461257e57600354908382018092116105d0578160035584600052600283528160406000205560405193612505856129de565b85855283850181815260408087018381526000958652929095529390922093518454935192516001600160b01b031990941691161790151560a01b60ff60a01b161790151560a81b60ff60a81b161790555b7f2dbe9fb88463d989acccabbb6ee06901f83672eb78e04a11ff48dd8f69a27cda600080a2005b5060008381526002825260408082205482529290915220805460ff60a01b1916600160a01b179055612557565b346105e6576125b936612976565b906000526010602052604060002080548210156105e6576020916107fa9161298c565b346105e65760003660031901126105e6576020600354604051908152f35b346105e65760003660031901126105e6576020600854604051908152f35b346105e65760203660031901126105e65761263161294a565b6000546001600160a01b039190821633036105e6571680600052600560205261266460ff60406000205460101c16612d0f565b806000526005602052604060002060ff1981541690557f16dc8b56b1ed852b4d628030204bb4d83910ae764e85489e6a9669b462a3cb1c600080a2005b346105e65760003660031901126105e6576020600e54604051908152f35b346105e65760203660031901126105e6576004356000526006602052602060018060a01b0360406000205416604051908152f35b346105e65760003660031901126105e6576020600454604051908152f35b346105e6576020806003193601126105e657600435806000526007825261274560ff60036040600020015460081c16612c30565b806000526007825261276260ff6003604060002001541615612c73565b806000526007825261278260406000206001600282015491015410612c73565b80600052600782526127be6103e86127a581600260406000200154044210612c73565b8260005260078452600160406000200154044211612cb1565b60005260118152604060002033600052815260018060a01b0360406000205416604051908152f35b346105e6576020806003193601126105e657600080516020612ed283398151915260606004359233600052600281526040600020546000526001815261283660ff60406000205460a01c16612be9565b6000546001600160a01b039081163303612929575b5083600052600780825261286c60ff60036040600020015460081c16612c30565b8460005280825261288860ff6003604060002001541615612c73565b846000528082526128a760406000206001600282015491015410612c73565b846000528082526128e16103e86128c981600260406000200154044210612c73565b86600052828452600160406000200154044211612cb1565b8460005281526003604060002001600160ff1982541617905560176040519180835282015276566f74696e672069732073657420656e646564206e6f7760481b6040820152a2005b61294490856000526007835233906040600020541614612e54565b8461284b565b600435906001600160a01b03821682036105e657565b602435906001600160a01b03821682036105e657565b60409060031901126105e6576004359060243590565b8054821015610c3f5760005260206000200190600090565b90600182811c921680156129d4575b60208310146129be57565b634e487b7160e01b600052602260045260246000fd5b91607f16916129b3565b606081019081106001600160401b038211176104fb57604052565b90601f801991011681019081106001600160401b038211176104fb57604052565b9060405191826000825492612a2e846129a4565b908184526001948581169081600014612a9d5750600114612a5a575b5050612a58925003836129f9565b565b9093915060005260209081600020936000915b818310612a85575050612a5893508201013880612a4a565b85548884018501529485019487945091830191612a6d565b915050612a5894506020925060ff191682840152151560051b8201013880612a4a565b919082519283825260005b848110612aec575050826000602080949584010152601f8019910116010190565b602081830181015184830182015201612acb565b6020908160408183019282815285518094520193019160005b828110612b27575050505090565b835185529381019392810192600101612b19565b81601f820112156105e6578035906001600160401b0382116104fb5760405192612b6f601f8401601f1916602001856129f9565b828452602083830101116105e657816000926020809301838601378301015290565b9060406003198301126105e65760043591602435906001600160401b0382116105e657612bc091600401612b3b565b90565b6001600160401b0381116104fb5760051b60200190565b60001981146105d05760010190565b15612bf057565b60405162461bcd60e51b815260206004820152601860248201527720b2323932b9b99034b9903737ba1030b7321020b236b4b760411b6044820152606490fd5b15612c3757565b60405162461bcd60e51b8152602060048201526014602482015273566f74696e67206973204e6f742041637469766560601b6044820152606490fd5b15612c7a57565b60405162461bcd60e51b815260206004820152600f60248201526e159bdd1a5b99c81a5cc8115b991959608a1b6044820152606490fd5b15612cb857565b60405162461bcd60e51b815260206004820152602960248201527f57696572646c7920766f74696e67207374617274206973204e4f54206c657373604482015268207468616e206e6f7760b81b6064820152608490fd5b15612d1657565b60405162461bcd60e51b8152602060048201526015602482015274566f74657220646f6573206e6f742065786973747360581b6044820152606490fd5b15612d5a57565b60405162461bcd60e51b815260206004820152603260248201527f596f75206861766520616c72656164792061207265676973746572656420766f604482015271746520666f72207468697320766f74696e6760701b6064820152608490fd5b15612dc157565b60405162461bcd60e51b815260206004820152603060248201527f53656c6563746564204f7074696f6e206973206e6f7420696e2076616c69642060448201526f03232b334b732b21037b83a34b7b739960851b6064820152608490fd5b8054600160401b8110156104fb57612e3c9160018201815561298c565b819291549060031b91821b91600019901b1916179055565b15612e5b57565b60405162461bcd60e51b815260206004820152602860248201527f596f752068617665206e6f2061636365737320746f206d616e616765207468696044820152677320766f74696e6760c01b6064820152608490fdfefe7f5cfceb8ad67f83ff4bf79bf1b81a795adc92c0e1687969b0db71729160e7a083485e5f24523bd4866ff1a17c1a36345a0aec5ed66c7976acee290a5dbe77a26469706673582212206c119f85335712175d0b0d9f0e4665065c0f96087a0e421cf6e5c9f379f701ed64736f6c63430008130033",
  "immutableReferences": {},
  "source": "// SPDX-License-Identifier: MIT\npragma solidity 0.8.19;\nimport  \"./DaobuilderDataStorage.sol\";\ncontract Daobuilder is DaobuilderDataStorage{\n\n\n\n    function getActiveVotings() public view returns (uint[] memory){\n        uint[] memory activeVotings = new uint[](lastVotingId);\n        uint counter = 0;\n        for(uint i = 1; i<=lastVotingId;i++){\n            if(votings[i].activated && votings[i].ended==false && votings[i].start/1000 <= block.timestamp && votings[i].end/1000 > block.timestamp){\n                activeVotings[counter] = i;\n                counter+=1;\n            }\n        }\n        return activeVotings;\n    }\n\n    function getMyVotings() public view isAdmin(msg.sender) returns (uint[] memory){\n        uint[] memory MyVotingList = myVotings[msg.sender];\n        return MyVotingList;\n    }\n    \n    function getVotingOptions(uint _votingId) public view returns (uint[] memory){\n        uint[] memory MyVotingList = votingOptions[_votingId];\n        return MyVotingList;\n    }\n    \n    function delegateMyVote(uint _votingId ,address _to) \n        external  isVotingActive(_votingId) \n                  VoterCanVote(msg.sender) \n                  NoVoteRegesteredYet(_votingId , msg.sender){\n\n        Delegations storage delegationsOnthisVoting = votingsDelegations[_votingId];\n        delegationsOnthisVoting.delegaterToDelegatee[msg.sender] = _to;\n        emit VotingRightDelegated(_votingId , msg.sender , _to);\n    }\n\n    function revokeDelegation(uint _votingId ,address _to)\n        external  isVotingActive(_votingId) \n                  VoterCanVote(msg.sender)\n                  NoVoteRegesteredYet(_votingId , msg.sender){\n        Delegations storage delegationsOnthisVoting = votingsDelegations[_votingId];\n        delete delegationsOnthisVoting.delegaterToDelegatee[msg.sender];\n        emit VotingRightUnDelegated(_votingId , msg.sender , _to);\n    }\n\n    function getMyDelegationOnVoting(uint _votingId) public view\n                    isVotingActive(_votingId) returns (address addrss){\n            Delegations storage thisVotingDelegations = votingsDelegations[_votingId];\n            return thisVotingDelegations.delegaterToDelegatee[msg.sender];\n    }\n\n    function vote(uint _votingId , uint _selectedOption , address _onbehalfOf) \n        external isVotingActive(_votingId)\n                 NoVoteRegesteredYet(_votingId,_onbehalfOf)\n                 VoterCanVote(msg.sender)\n                 CanVoteBehalfOf(_votingId ,msg.sender , _onbehalfOf)\n                 IsOptionValid(_votingId , _selectedOption){\n        lastVoteId+=1;\n        votes[lastVoteId] = Vote(_votingId,msg.sender,_onbehalfOf,options[_selectedOption].option,block. timestamp,voters[_onbehalfOf].votingPower);\n        uint[] storage userVotes = votersVotes[_onbehalfOf];\n        userVotes.push(lastVoteId);\n        uint[] storage votingVotes = votingsVotes[_votingId];\n        votingVotes.push(lastVoteId);\n        emit VoteRegistered(_votingId , _selectedOption , _onbehalfOf);\n    } \n\n\n    function getVotingsVotes(uint _votingId) public view returns (uint[] memory){\n        uint[] memory Votingvotes = votingsVotes[_votingId];\n        return Votingvotes;\n    }\n    function getVotersVotes() public view returns (uint[] memory){\n        uint[] memory MyVotes = votersVotes[msg.sender];\n        return MyVotes;\n    }\n\n}",
  "sourcePath": "/home/aca/smartcontracts/daobuilder/contracts/Daobuilder.sol",
  "compiler": {
    "name": "solc",
    "version": "0.8.19+commit.7dd6d404.Emscripten.clang"
  },
  "schemaVersion": "3.4.16",
  "updatedAt": "2025-01-19T20:03:46.274Z",
  "networkType": "ethereum",
  "devdoc": {
    "kind": "dev",
    "methods": {},
    "version": 1
  },
  "userdoc": {
    "events": {
      "NewAdminAdded(address)": {
        "notice": "Events section "
      }
    },
    "kind": "user",
    "methods": {
      "addVoter(address)": {
        "notice": "Manage Voters"
      },
      "addVoting(uint256,uint256,string,string)": {
        "notice": "Manage Votings"
      },
      "addVotingAdmin(address)": {
        "notice": "Manage Voting Admins"
      },
      "addVotingOption(uint256,string)": {
        "notice": "Manage Voting Options"
      }
    },
    "version": 1
  }
}